{"abi":[{"type":"constructor","inputs":[{"name":"_rewardVaultFactory","type":"address","internalType":"address"}],"stateMutability":"nonpayable"},{"type":"function","name":"claimRewards","inputs":[{"name":"wallet","type":"address","internalType":"address"},{"name":"lpToken","type":"address","internalType":"address"}],"outputs":[],"stateMutability":"nonpayable"},{"type":"function","name":"description","inputs":[],"outputs":[{"name":"","type":"string","internalType":"string"}],"stateMutability":"view"},{"type":"function","name":"name","inputs":[],"outputs":[{"name":"","type":"string","internalType":"string"}],"stateMutability":"view"},{"type":"function","name":"owner","inputs":[],"outputs":[{"name":"","type":"address","internalType":"address"}],"stateMutability":"view"},{"type":"function","name":"permission","inputs":[],"outputs":[{"name":"","type":"bytes32","internalType":"bytes32"}],"stateMutability":"view"},{"type":"function","name":"renounceOwnership","inputs":[],"outputs":[],"stateMutability":"nonpayable"},{"type":"function","name":"rewardVaultFactory","inputs":[],"outputs":[{"name":"","type":"address","internalType":"address"}],"stateMutability":"view"},{"type":"function","name":"setRewardVaultFactory","inputs":[{"name":"_newFactory","type":"address","internalType":"address"}],"outputs":[],"stateMutability":"nonpayable"},{"type":"function","name":"transferOwnership","inputs":[{"name":"newOwner","type":"address","internalType":"address"}],"outputs":[],"stateMutability":"nonpayable"},{"type":"event","name":"OwnershipTransferred","inputs":[{"name":"previousOwner","type":"address","indexed":true,"internalType":"address"},{"name":"newOwner","type":"address","indexed":true,"internalType":"address"}],"anonymous":false},{"type":"event","name":"RewardClaimed","inputs":[{"name":"wallet","type":"address","indexed":true,"internalType":"address"},{"name":"lpToken","type":"address","indexed":true,"internalType":"address"},{"name":"amount","type":"uint256","indexed":false,"internalType":"uint256"}],"anonymous":false},{"type":"event","name":"RewardVaultFactoryUpdated","inputs":[{"name":"oldFactory","type":"address","indexed":true,"internalType":"address"},{"name":"newFactory","type":"address","indexed":true,"internalType":"address"}],"anonymous":false},{"type":"error","name":"OwnableInvalidOwner","inputs":[{"name":"owner","type":"address","internalType":"address"}]},{"type":"error","name":"OwnableUnauthorizedAccount","inputs":[{"name":"account","type":"address","internalType":"address"}]}],"bytecode":{"object":"0x608060405234801561000f575f5ffd5b506040516113f43803806113f4833981810160405281019061003191906102ad565b80335f73ffffffffffffffffffffffffffffffffffffffff168173ffffffffffffffffffffffffffffffffffffffff16036100a3575f6040517f1e4fbdf700000000000000000000000000000000000000000000000000000000815260040161009a91906102e7565b60405180910390fd5b6100b28161018e60201b60201c565b508060015f6101000a81548173ffffffffffffffffffffffffffffffffffffffff021916908373ffffffffffffffffffffffffffffffffffffffff160217905550507f6e43a2468161dc288dc0acbf13be2b3455676e9bac940ee390f51cba9d77fbe56002819055506040518060400160405280600e81526020017f4175746f2d636c61696d204247540000000000000000000000000000000000008152506003908161015f919061053d565b506040518060600160405280603b81526020016113b9603b913960049081610187919061053d565b505061060c565b5f5f5f9054906101000a900473ffffffffffffffffffffffffffffffffffffffff169050815f5f6101000a81548173ffffffffffffffffffffffffffffffffffffffff021916908373ffffffffffffffffffffffffffffffffffffffff1602179055508173ffffffffffffffffffffffffffffffffffffffff168173ffffffffffffffffffffffffffffffffffffffff167f8be0079c531659141344cd1fd0a4f28419497f9722a3daafe3b4186f6b6457e060405160405180910390a35050565b5f5ffd5b5f73ffffffffffffffffffffffffffffffffffffffff82169050919050565b5f61027c82610253565b9050919050565b61028c81610272565b8114610296575f5ffd5b50565b5f815190506102a781610283565b92915050565b5f602082840312156102c2576102c161024f565b5b5f6102cf84828501610299565b91505092915050565b6102e181610272565b82525050565b5f6020820190506102fa5f8301846102d8565b92915050565b5f81519050919050565b7f4e487b71000000000000000000000000000000000000000000000000000000005f52604160045260245ffd5b7f4e487b71000000000000000000000000000000000000000000000000000000005f52602260045260245ffd5b5f600282049050600182168061037b57607f821691505b60208210810361038e5761038d610337565b5b50919050565b5f819050815f5260205f209050919050565b5f6020601f8301049050919050565b5f82821b905092915050565b5f600883026103f07fffffffffffffffffffffffffffffffffffffffffffffffffffffffffffffffff826103b5565b6103fa86836103b5565b95508019841693508086168417925050509392505050565b5f819050919050565b5f819050919050565b5f61043e61043961043484610412565b61041b565b610412565b9050919050565b5f819050919050565b61045783610424565b61046b61046382610445565b8484546103c1565b825550505050565b5f5f905090565b610482610473565b61048d81848461044e565b505050565b5b818110156104b0576104a55f8261047a565b600181019050610493565b5050565b601f8211156104f5576104c681610394565b6104cf846103a6565b810160208510156104de578190505b6104f26104ea856103a6565b830182610492565b50505b505050565b5f82821c905092915050565b5f6105155f19846008026104fa565b1980831691505092915050565b5f61052d8383610506565b9150826002028217905092915050565b61054682610300565b67ffffffffffffffff81111561055f5761055e61030a565b5b6105698254610364565b6105748282856104b4565b5f60209050601f8311600181146105a5575f8415610593578287015190505b61059d8582610522565b865550610604565b601f1984166105b386610394565b5f5b828110156105da578489015182556001820191506020850194506020810190506105b5565b868310156105f757848901516105f3601f891682610506565b8355505b6001600288020188555050505b505050505050565b610da0806106195f395ff3fe608060405234801561000f575f5ffd5b5060043610610091575f3560e01c80637284e416116100645780637284e416146100f75780638da5cb5b14610115578063f1e42ccd14610133578063f2fde38b1461014f578063f3b0c8b71461016b57610091565b806306fdde03146100955780633a99927c146100b35780636b91f57f146100d1578063715018a6146100ed575b5f5ffd5b61009d610189565b6040516100aa9190610951565b60405180910390f35b6100bb610215565b6040516100c891906109b0565b60405180910390f35b6100eb60048036038101906100e691906109f7565b61023a565b005b6100f5610373565b005b6100ff610386565b60405161010c9190610951565b60405180910390f35b61011d610412565b60405161012a91906109b0565b60405180910390f35b61014d60048036038101906101489190610a22565b610439565b005b610169600480360381019061016491906109f7565b610708565b005b61017361078c565b6040516101809190610a78565b60405180910390f35b6003805461019690610abe565b80601f01602080910402602001604051908101604052809291908181526020018280546101c290610abe565b801561020d5780601f106101e45761010080835404028352916020019161020d565b820191905f5260205f20905b8154815290600101906020018083116101f057829003601f168201915b505050505081565b60015f9054906101000a900473ffffffffffffffffffffffffffffffffffffffff1681565b610242610792565b5f73ffffffffffffffffffffffffffffffffffffffff168173ffffffffffffffffffffffffffffffffffffffff16036102b0576040517f08c379a00000000000000000000000000000000000000000000000000000000081526004016102a790610b38565b60405180910390fd5b5f60015f9054906101000a900473ffffffffffffffffffffffffffffffffffffffff1690508160015f6101000a81548173ffffffffffffffffffffffffffffffffffffffff021916908373ffffffffffffffffffffffffffffffffffffffff1602179055508173ffffffffffffffffffffffffffffffffffffffff168173ffffffffffffffffffffffffffffffffffffffff167feef61f8b5fffb774a7e05251bc30ea1e5cefcaa896018d39172f081acdafebaf60405160405180910390a35050565b61037b610792565b6103845f610819565b565b6004805461039390610abe565b80601f01602080910402602001604051908101604052809291908181526020018280546103bf90610abe565b801561040a5780601f106103e15761010080835404028352916020019161040a565b820191905f5260205f20905b8154815290600101906020018083116103ed57829003601f168201915b505050505081565b5f5f5f9054906101000a900473ffffffffffffffffffffffffffffffffffffffff16905090565b5f60015f9054906101000a900473ffffffffffffffffffffffffffffffffffffffff1673ffffffffffffffffffffffffffffffffffffffff16630eb9af38836040518263ffffffff1660e01b815260040161049491906109b0565b602060405180830381865afa1580156104af573d5f5f3e3d5ffd5b505050506040513d601f19601f820116820180604052508101906104d39190610b6a565b90505f73ffffffffffffffffffffffffffffffffffffffff168173ffffffffffffffffffffffffffffffffffffffff1603610543576040517f08c379a000000000000000000000000000000000000000000000000000000000815260040161053a90610c05565b60405180910390fd5b5f8373ffffffffffffffffffffffffffffffffffffffff16638da5cb5b6040518163ffffffff1660e01b8152600401602060405180830381865afa15801561058d573d5f5f3e3d5ffd5b505050506040513d601f19601f820116820180604052508101906105b19190610b6a565b90505f636b09169560e01b82866040516024016105cf929190610c43565b604051602081830303815290604052907bffffffffffffffffffffffffffffffffffffffffffffffffffffffff19166020820180517bffffffffffffffffffffffffffffffffffffffffffffffffffffffff838183161783525050505090508473ffffffffffffffffffffffffffffffffffffffff1663721af589845f846002546040518563ffffffff1660e01b815260040161066f9493929190610d07565b5f604051808303815f87803b158015610686575f5ffd5b505af1158015610698573d5f5f3e3d5ffd5b505050508373ffffffffffffffffffffffffffffffffffffffff168573ffffffffffffffffffffffffffffffffffffffff167f0aa4d283470c904c551d18bb894d37e17674920f3261a7f854be501e25f421b75f6040516106f99190610d51565b60405180910390a35050505050565b610710610792565b5f73ffffffffffffffffffffffffffffffffffffffff168173ffffffffffffffffffffffffffffffffffffffff1603610780575f6040517f1e4fbdf700000000000000000000000000000000000000000000000000000000815260040161077791906109b0565b60405180910390fd5b61078981610819565b50565b60025481565b61079a6108da565b73ffffffffffffffffffffffffffffffffffffffff166107b8610412565b73ffffffffffffffffffffffffffffffffffffffff1614610817576107db6108da565b6040517f118cdaa700000000000000000000000000000000000000000000000000000000815260040161080e91906109b0565b60405180910390fd5b565b5f5f5f9054906101000a900473ffffffffffffffffffffffffffffffffffffffff169050815f5f6101000a81548173ffffffffffffffffffffffffffffffffffffffff021916908373ffffffffffffffffffffffffffffffffffffffff1602179055508173ffffffffffffffffffffffffffffffffffffffff168173ffffffffffffffffffffffffffffffffffffffff167f8be0079c531659141344cd1fd0a4f28419497f9722a3daafe3b4186f6b6457e060405160405180910390a35050565b5f33905090565b5f81519050919050565b5f82825260208201905092915050565b8281835e5f83830152505050565b5f601f19601f8301169050919050565b5f610923826108e1565b61092d81856108eb565b935061093d8185602086016108fb565b61094681610909565b840191505092915050565b5f6020820190508181035f8301526109698184610919565b905092915050565b5f73ffffffffffffffffffffffffffffffffffffffff82169050919050565b5f61099a82610971565b9050919050565b6109aa81610990565b82525050565b5f6020820190506109c35f8301846109a1565b92915050565b5f5ffd5b6109d681610990565b81146109e0575f5ffd5b50565b5f813590506109f1816109cd565b92915050565b5f60208284031215610a0c57610a0b6109c9565b5b5f610a19848285016109e3565b91505092915050565b5f5f60408385031215610a3857610a376109c9565b5b5f610a45858286016109e3565b9250506020610a56858286016109e3565b9150509250929050565b5f819050919050565b610a7281610a60565b82525050565b5f602082019050610a8b5f830184610a69565b92915050565b7f4e487b71000000000000000000000000000000000000000000000000000000005f52602260045260245ffd5b5f6002820490506001821680610ad557607f821691505b602082108103610ae857610ae7610a91565b5b50919050565b7f496e76616c696420666163746f727920616464726573730000000000000000005f82015250565b5f610b226017836108eb565b9150610b2d82610aee565b602082019050919050565b5f6020820190508181035f830152610b4f81610b16565b9050919050565b5f81519050610b64816109cd565b92915050565b5f60208284031215610b7f57610b7e6109c9565b5b5f610b8c84828501610b56565b91505092915050565b7f4e6f20726577617264207661756c7420666f756e6420666f72204c5020746f6b5f8201527f656e000000000000000000000000000000000000000000000000000000000000602082015250565b5f610bef6022836108eb565b9150610bfa82610b95565b604082019050919050565b5f6020820190508181035f830152610c1c81610be3565b9050919050565b5f610c2d82610971565b9050919050565b610c3d81610c23565b82525050565b5f604082019050610c565f8301856109a1565b610c636020830184610c34565b9392505050565b5f819050919050565b5f819050919050565b5f819050919050565b5f610c9f610c9a610c9584610c6a565b610c7c565b610c73565b9050919050565b610caf81610c85565b82525050565b5f81519050919050565b5f82825260208201905092915050565b5f610cd982610cb5565b610ce38185610cbf565b9350610cf38185602086016108fb565b610cfc81610909565b840191505092915050565b5f608082019050610d1a5f8301876109a1565b610d276020830186610ca6565b8181036040830152610d398185610ccf565b9050610d486060830184610a69565b95945050505050565b5f602082019050610d645f830184610ca6565b9291505056fea2646970667358221220fae9ea7d1eacf6fe9842101105f5af5a24aec980830a00a5accb63b930aa0e5964736f6c634300081c0033436f6e74726f6c6c657220666f72206175746f20636c61696d696e672042475420726577617264732066726f6d20726577617264207661756c7473","linkReferences":{}},"methodIdentifiers":{"claimRewards(address,address)":"f1e42ccd","description()":"7284e416","name()":"06fdde03","owner()":"8da5cb5b","permission()":"f3b0c8b7","renounceOwnership()":"715018a6","rewardVaultFactory()":"3a99927c","setRewardVaultFactory(address)":"6b91f57f","transferOwnership(address)":"f2fde38b"},"id":28}