{"abi":[{"type":"constructor","inputs":[],"stateMutability":"nonpayable"},{"type":"function","name":"controllersByPermission","inputs":[{"name":"","type":"bytes32","internalType":"bytes32"},{"name":"","type":"uint256","internalType":"uint256"}],"outputs":[{"name":"controller","type":"address","internalType":"address"},{"name":"name","type":"string","internalType":"string"},{"name":"permissionKey","type":"bytes32","internalType":"bytes32"},{"name":"description","type":"string","internalType":"string"},{"name":"isActive","type":"bool","internalType":"bool"}],"stateMutability":"view"},{"type":"function","name":"deactivateController","inputs":[{"name":"permissionKey","type":"bytes32","internalType":"bytes32"},{"name":"index","type":"uint256","internalType":"uint256"}],"outputs":[],"stateMutability":"nonpayable"},{"type":"function","name":"getControllers","inputs":[{"name":"permissionKey","type":"bytes32","internalType":"bytes32"}],"outputs":[{"name":"","type":"tuple[]","internalType":"struct ControllerRegistry.ControllerInfo[]","components":[{"name":"controller","type":"address","internalType":"address"},{"name":"name","type":"string","internalType":"string"},{"name":"permissionKey","type":"bytes32","internalType":"bytes32"},{"name":"description","type":"string","internalType":"string"},{"name":"isActive","type":"bool","internalType":"bool"}]}],"stateMutability":"view"},{"type":"function","name":"hasPermission","inputs":[{"name":"controller","type":"address","internalType":"address"},{"name":"permissionKey","type":"bytes32","internalType":"bytes32"}],"outputs":[{"name":"","type":"bool","internalType":"bool"}],"stateMutability":"view"},{"type":"function","name":"owner","inputs":[],"outputs":[{"name":"","type":"address","internalType":"address"}],"stateMutability":"view"},{"type":"function","name":"registerController","inputs":[{"name":"controller","type":"address","internalType":"address"},{"name":"permissionKey","type":"bytes32","internalType":"bytes32"},{"name":"name","type":"string","internalType":"string"},{"name":"description","type":"string","internalType":"string"}],"outputs":[],"stateMutability":"nonpayable"},{"type":"function","name":"renounceOwnership","inputs":[],"outputs":[],"stateMutability":"nonpayable"},{"type":"function","name":"transferOwnership","inputs":[{"name":"newOwner","type":"address","internalType":"address"}],"outputs":[],"stateMutability":"nonpayable"},{"type":"event","name":"ControllerDeactivated","inputs":[{"name":"controller","type":"address","indexed":false,"internalType":"address"},{"name":"permissionKey","type":"bytes32","indexed":false,"internalType":"bytes32"}],"anonymous":false},{"type":"event","name":"ControllerRegistered","inputs":[{"name":"controller","type":"address","indexed":false,"internalType":"address"},{"name":"permissionKey","type":"bytes32","indexed":false,"internalType":"bytes32"}],"anonymous":false},{"type":"event","name":"OwnershipTransferred","inputs":[{"name":"previousOwner","type":"address","indexed":true,"internalType":"address"},{"name":"newOwner","type":"address","indexed":true,"internalType":"address"}],"anonymous":false},{"type":"error","name":"OwnableInvalidOwner","inputs":[{"name":"owner","type":"address","internalType":"address"}]},{"type":"error","name":"OwnableUnauthorizedAccount","inputs":[{"name":"account","type":"address","internalType":"address"}]}],"bytecode":{"object":"0x608060405234801561000f575f5ffd5b50335f73ffffffffffffffffffffffffffffffffffffffff168173ffffffffffffffffffffffffffffffffffffffff1603610081575f6040517f1e4fbdf70000000000000000000000000000000000000000000000000000000081526004016100789190610196565b60405180910390fd5b6100908161009660201b60201c565b506101af565b5f5f5f9054906101000a900473ffffffffffffffffffffffffffffffffffffffff169050815f5f6101000a81548173ffffffffffffffffffffffffffffffffffffffff021916908373ffffffffffffffffffffffffffffffffffffffff1602179055508173ffffffffffffffffffffffffffffffffffffffff168173ffffffffffffffffffffffffffffffffffffffff167f8be0079c531659141344cd1fd0a4f28419497f9722a3daafe3b4186f6b6457e060405160405180910390a35050565b5f73ffffffffffffffffffffffffffffffffffffffff82169050919050565b5f61018082610157565b9050919050565b61019081610176565b82525050565b5f6020820190506101a95f830184610187565b92915050565b6118c8806101bc5f395ff3fe608060405234801561000f575f5ffd5b5060043610610086575f3560e01c8063b0619e8511610059578063b0619e8514610116578063bc1b8f7614610146578063ec4fc4fd14610162578063f2fde38b1461017e57610086565b806334ff0c541461008a578063715018a6146100be5780638da5cb5b146100c85780638eb2b820146100e6575b5f5ffd5b6100a4600480360381019061009f9190610de4565b61019a565b6040516100b5959493929190610efa565b60405180910390f35b6100c661031d565b005b6100d0610330565b6040516100dd9190610f59565b60405180910390f35b61010060048036038101906100fb9190610f72565b610357565b60405161010d9190611147565b60405180910390f35b610130600480360381019061012b9190611191565b61055c565b60405161013d91906111cf565b60405180910390f35b610160600480360381019061015b9190610de4565b610759565b005b61017c60048036038101906101779190611249565b6108ba565b005b610198600480360381019061019391906112ec565b610ba3565b005b6001602052815f5260405f2081815481106101b3575f80fd5b905f5260205f2090600502015f9150915050805f015f9054906101000a900473ffffffffffffffffffffffffffffffffffffffff16908060010180546101f890611344565b80601f016020809104026020016040519081016040528092919081815260200182805461022490611344565b801561026f5780601f106102465761010080835404028352916020019161026f565b820191905f5260205f20905b81548152906001019060200180831161025257829003601f168201915b50505050509080600201549080600301805461028a90611344565b80601f01602080910402602001604051908101604052809291908181526020018280546102b690611344565b80156103015780601f106102d857610100808354040283529160200191610301565b820191905f5260205f20905b8154815290600101906020018083116102e457829003601f168201915b505050505090806004015f9054906101000a900460ff16905085565b610325610c27565b61032e5f610cae565b565b5f5f5f9054906101000a900473ffffffffffffffffffffffffffffffffffffffff16905090565b606060015f8381526020019081526020015f20805480602002602001604051908101604052809291908181526020015f905b82821015610551578382905f5260205f2090600502016040518060a00160405290815f82015f9054906101000a900473ffffffffffffffffffffffffffffffffffffffff1673ffffffffffffffffffffffffffffffffffffffff1673ffffffffffffffffffffffffffffffffffffffff16815260200160018201805461040e90611344565b80601f016020809104026020016040519081016040528092919081815260200182805461043a90611344565b80156104855780601f1061045c57610100808354040283529160200191610485565b820191905f5260205f20905b81548152906001019060200180831161046857829003601f168201915b50505050508152602001600282015481526020016003820180546104a890611344565b80601f01602080910402602001604051908101604052809291908181526020018280546104d490611344565b801561051f5780601f106104f65761010080835404028352916020019161051f565b820191905f5260205f20905b81548152906001019060200180831161050257829003601f168201915b50505050508152602001600482015f9054906101000a900460ff16151515158152505081526020019060010190610389565b505050509050919050565b5f5f73ffffffffffffffffffffffffffffffffffffffff168373ffffffffffffffffffffffffffffffffffffffff16036105cb576040517f08c379a00000000000000000000000000000000000000000000000000000000081526004016105c2906113be565b60405180910390fd5b5f5f1b820361060f576040517f08c379a000000000000000000000000000000000000000000000000000000000815260040161060690611426565b60405180910390fd5b5f60015f8481526020019081526020015f208054905011610665576040517f08c379a000000000000000000000000000000000000000000000000000000000815260040161065c9061148e565b60405180910390fd5b5f60015f8481526020019081526020015f2090505f5f90505b818054905081101561074d578473ffffffffffffffffffffffffffffffffffffffff168282815481106106b4576106b36114ac565b5b905f5260205f2090600502015f015f9054906101000a900473ffffffffffffffffffffffffffffffffffffffff1673ffffffffffffffffffffffffffffffffffffffff161480156107305750818181548110610713576107126114ac565b5b905f5260205f2090600502016004015f9054906101000a900460ff165b1561074057600192505050610753565b808060010191505061067e565b505f9150505b92915050565b610761610c27565b5f60015f8481526020019081526020015f2080549050116107b7576040517f08c379a00000000000000000000000000000000000000000000000000000000081526004016107ae9061148e565b60405180910390fd5b60015f8381526020019081526020015f2080549050811061080d576040517f08c379a000000000000000000000000000000000000000000000000000000000815260040161080490611523565b60405180910390fd5b5f60015f8481526020019081526020015f208281548110610831576108306114ac565b5b905f5260205f20906005020190505f816004015f6101000a81548160ff0219169083151502179055507f8c457c8786caba12aa74987c057f2a1c0b9eeb28d6cdb4aa79345b1918f50fc7815f015f9054906101000a900473ffffffffffffffffffffffffffffffffffffffff16846040516108ad929190611541565b60405180910390a1505050565b6108c2610c27565b5f73ffffffffffffffffffffffffffffffffffffffff168673ffffffffffffffffffffffffffffffffffffffff1603610930576040517f08c379a0000000000000000000000000000000000000000000000000000000008152600401610927906113be565b60405180910390fd5b5f5f1b8503610974576040517f08c379a000000000000000000000000000000000000000000000000000000000815260040161096b90611426565b60405180910390fd5b5f60015f8781526020019081526020015f2080549050146109ca576040517f08c379a00000000000000000000000000000000000000000000000000000000081526004016109c1906115d8565b60405180910390fd5b60015f8681526020019081526020015f206040518060a001604052808873ffffffffffffffffffffffffffffffffffffffff16815260200186868080601f0160208091040260200160405190810160405280939291908181526020018383808284375f81840152601f19601f82011690508083019250505050505050815260200187815260200184848080601f0160208091040260200160405190810160405280939291908181526020018383808284375f81840152601f19601f82011690508083019250505050505050815260200160011515815250908060018154018082558091505060019003905f5260205f2090600502015f909190919091505f820151815f015f6101000a81548173ffffffffffffffffffffffffffffffffffffffff021916908373ffffffffffffffffffffffffffffffffffffffff1602179055506020820151816001019081610b2091906117c3565b50604082015181600201556060820151816003019081610b4091906117c3565b506080820151816004015f6101000a81548160ff02191690831515021790555050507f37703de7a400caf3696136c0ee5294f202ddbb3c9cc995e13ed7e5bd5f8fbf8c8686604051610b93929190611541565b60405180910390a1505050505050565b610bab610c27565b5f73ffffffffffffffffffffffffffffffffffffffff168173ffffffffffffffffffffffffffffffffffffffff1603610c1b575f6040517f1e4fbdf7000000000000000000000000000000000000000000000000000000008152600401610c129190610f59565b60405180910390fd5b610c2481610cae565b50565b610c2f610d6f565b73ffffffffffffffffffffffffffffffffffffffff16610c4d610330565b73ffffffffffffffffffffffffffffffffffffffff1614610cac57610c70610d6f565b6040517f118cdaa7000000000000000000000000000000000000000000000000000000008152600401610ca39190610f59565b60405180910390fd5b565b5f5f5f9054906101000a900473ffffffffffffffffffffffffffffffffffffffff169050815f5f6101000a81548173ffffffffffffffffffffffffffffffffffffffff021916908373ffffffffffffffffffffffffffffffffffffffff1602179055508173ffffffffffffffffffffffffffffffffffffffff168173ffffffffffffffffffffffffffffffffffffffff167f8be0079c531659141344cd1fd0a4f28419497f9722a3daafe3b4186f6b6457e060405160405180910390a35050565b5f33905090565b5f5ffd5b5f5ffd5b5f819050919050565b610d9081610d7e565b8114610d9a575f5ffd5b50565b5f81359050610dab81610d87565b92915050565b5f819050919050565b610dc381610db1565b8114610dcd575f5ffd5b50565b5f81359050610dde81610dba565b92915050565b5f5f60408385031215610dfa57610df9610d76565b5b5f610e0785828601610d9d565b9250506020610e1885828601610dd0565b9150509250929050565b5f73ffffffffffffffffffffffffffffffffffffffff82169050919050565b5f610e4b82610e22565b9050919050565b610e5b81610e41565b82525050565b5f81519050919050565b5f82825260208201905092915050565b8281835e5f83830152505050565b5f601f19601f8301169050919050565b5f610ea382610e61565b610ead8185610e6b565b9350610ebd818560208601610e7b565b610ec681610e89565b840191505092915050565b610eda81610d7e565b82525050565b5f8115159050919050565b610ef481610ee0565b82525050565b5f60a082019050610f0d5f830188610e52565b8181036020830152610f1f8187610e99565b9050610f2e6040830186610ed1565b8181036060830152610f408185610e99565b9050610f4f6080830184610eeb565b9695505050505050565b5f602082019050610f6c5f830184610e52565b92915050565b5f60208284031215610f8757610f86610d76565b5b5f610f9484828501610d9d565b91505092915050565b5f81519050919050565b5f82825260208201905092915050565b5f819050602082019050919050565b610fcf81610e41565b82525050565b5f82825260208201905092915050565b5f610fef82610e61565b610ff98185610fd5565b9350611009818560208601610e7b565b61101281610e89565b840191505092915050565b61102681610d7e565b82525050565b61103581610ee0565b82525050565b5f60a083015f8301516110505f860182610fc6565b50602083015184820360208601526110688282610fe5565b915050604083015161107d604086018261101d565b50606083015184820360608601526110958282610fe5565b91505060808301516110aa608086018261102c565b508091505092915050565b5f6110c0838361103b565b905092915050565b5f602082019050919050565b5f6110de82610f9d565b6110e88185610fa7565b9350836020820285016110fa85610fb7565b805f5b85811015611135578484038952815161111685826110b5565b9450611121836110c8565b925060208a019950506001810190506110fd565b50829750879550505050505092915050565b5f6020820190508181035f83015261115f81846110d4565b905092915050565b61117081610e41565b811461117a575f5ffd5b50565b5f8135905061118b81611167565b92915050565b5f5f604083850312156111a7576111a6610d76565b5b5f6111b48582860161117d565b92505060206111c585828601610d9d565b9150509250929050565b5f6020820190506111e25f830184610eeb565b92915050565b5f5ffd5b5f5ffd5b5f5ffd5b5f5f83601f840112611209576112086111e8565b5b8235905067ffffffffffffffff811115611226576112256111ec565b5b602083019150836001820283011115611242576112416111f0565b5b9250929050565b5f5f5f5f5f5f6080878903121561126357611262610d76565b5b5f61127089828a0161117d565b965050602061128189828a01610d9d565b955050604087013567ffffffffffffffff8111156112a2576112a1610d7a565b5b6112ae89828a016111f4565b9450945050606087013567ffffffffffffffff8111156112d1576112d0610d7a565b5b6112dd89828a016111f4565b92509250509295509295509295565b5f6020828403121561130157611300610d76565b5b5f61130e8482850161117d565b91505092915050565b7f4e487b71000000000000000000000000000000000000000000000000000000005f52602260045260245ffd5b5f600282049050600182168061135b57607f821691505b60208210810361136e5761136d611317565b5b50919050565b7f496e76616c696420636f6e74726f6c6c657220616464726573730000000000005f82015250565b5f6113a8601a83610e6b565b91506113b382611374565b602082019050919050565b5f6020820190508181035f8301526113d58161139c565b9050919050565b7f496e76616c6964207065726d697373696f6e206b6579000000000000000000005f82015250565b5f611410601683610e6b565b915061141b826113dc565b602082019050919050565b5f6020820190508181035f83015261143d81611404565b9050919050565b7f5065726d697373696f6e206b6579206e6f7420726567697374657265640000005f82015250565b5f611478601d83610e6b565b915061148382611444565b602082019050919050565b5f6020820190508181035f8301526114a58161146c565b9050919050565b7f4e487b71000000000000000000000000000000000000000000000000000000005f52603260045260245ffd5b7f496e76616c696420696e646578000000000000000000000000000000000000005f82015250565b5f61150d600d83610e6b565b9150611518826114d9565b602082019050919050565b5f6020820190508181035f83015261153a81611501565b9050919050565b5f6040820190506115545f830185610e52565b6115616020830184610ed1565b9392505050565b7f5065726d697373696f6e206b657920616c7265616479207265676973746572655f8201527f6400000000000000000000000000000000000000000000000000000000000000602082015250565b5f6115c2602183610e6b565b91506115cd82611568565b604082019050919050565b5f6020820190508181035f8301526115ef816115b6565b9050919050565b7f4e487b71000000000000000000000000000000000000000000000000000000005f52604160045260245ffd5b5f819050815f5260205f209050919050565b5f6020601f8301049050919050565b5f82821b905092915050565b5f6008830261167f7fffffffffffffffffffffffffffffffffffffffffffffffffffffffffffffffff82611644565b6116898683611644565b95508019841693508086168417925050509392505050565b5f819050919050565b5f6116c46116bf6116ba84610db1565b6116a1565b610db1565b9050919050565b5f819050919050565b6116dd836116aa565b6116f16116e9826116cb565b848454611650565b825550505050565b5f5f905090565b6117086116f9565b6117138184846116d4565b505050565b5b818110156117365761172b5f82611700565b600181019050611719565b5050565b601f82111561177b5761174c81611623565b61175584611635565b81016020851015611764578190505b61177861177085611635565b830182611718565b50505b505050565b5f82821c905092915050565b5f61179b5f1984600802611780565b1980831691505092915050565b5f6117b3838361178c565b9150826002028217905092915050565b6117cc82610e61565b67ffffffffffffffff8111156117e5576117e46115f6565b5b6117ef8254611344565b6117fa82828561173a565b5f60209050601f83116001811461182b575f8415611819578287015190505b61182385826117a8565b86555061188a565b601f19841661183986611623565b5f5b828110156118605784890151825560018201915060208501945060208101905061183b565b8683101561187d5784890151611879601f89168261178c565b8355505b6001600288020188555050505b50505050505056fea2646970667358221220962e9e498c8640baa10b0fa2d01f6abcc527c7159cf674b68d3c785a4aa0b4dc64736f6c634300081c0033","linkReferences":{}},"methodIdentifiers":{"controllersByPermission(bytes32,uint256)":"34ff0c54","deactivateController(bytes32,uint256)":"bc1b8f76","getControllers(bytes32)":"8eb2b820","hasPermission(address,bytes32)":"b0619e85","owner()":"8da5cb5b","registerController(address,bytes32,string,string)":"ec4fc4fd","renounceOwnership()":"715018a6","transferOwnership(address)":"f2fde38b"},"id":40}