{"abi":[{"type":"constructor","inputs":[{"name":"_controllerRegistry","type":"address","internalType":"address"}],"stateMutability":"nonpayable"},{"type":"function","name":"approvePermission","inputs":[{"name":"wallet","type":"address","internalType":"address"},{"name":"controller","type":"address","internalType":"address"},{"name":"permissionKey","type":"bytes32","internalType":"bytes32"}],"outputs":[],"stateMutability":"nonpayable"},{"type":"function","name":"controllerRegistry","inputs":[],"outputs":[{"name":"","type":"address","internalType":"contract IControllerRegistry"}],"stateMutability":"view"},{"type":"function","name":"getPermission","inputs":[{"name":"wallet","type":"address","internalType":"address"},{"name":"controller","type":"address","internalType":"address"},{"name":"permissionKey","type":"bytes32","internalType":"bytes32"}],"outputs":[{"name":"","type":"tuple","internalType":"struct WalletPermissions.Permission","components":[{"name":"permissionKey","type":"bytes32","internalType":"bytes32"},{"name":"controller","type":"address","internalType":"address"},{"name":"isApproved","type":"bool","internalType":"bool"},{"name":"approvedAt","type":"uint256","internalType":"uint256"}]}],"stateMutability":"view"},{"type":"function","name":"hasPermission","inputs":[{"name":"wallet","type":"address","internalType":"address"},{"name":"controller","type":"address","internalType":"address"},{"name":"permissionKey","type":"bytes32","internalType":"bytes32"}],"outputs":[{"name":"","type":"bool","internalType":"bool"}],"stateMutability":"view"},{"type":"function","name":"permissions","inputs":[{"name":"","type":"address","internalType":"address"},{"name":"","type":"bytes32","internalType":"bytes32"},{"name":"","type":"address","internalType":"address"}],"outputs":[{"name":"permissionKey","type":"bytes32","internalType":"bytes32"},{"name":"controller","type":"address","internalType":"address"},{"name":"isApproved","type":"bool","internalType":"bool"},{"name":"approvedAt","type":"uint256","internalType":"uint256"}],"stateMutability":"view"},{"type":"function","name":"revokePermission","inputs":[{"name":"wallet","type":"address","internalType":"address"},{"name":"controller","type":"address","internalType":"address"},{"name":"permissionKey","type":"bytes32","internalType":"bytes32"}],"outputs":[],"stateMutability":"nonpayable"},{"type":"event","name":"PermissionApproved","inputs":[{"name":"wallet","type":"address","indexed":true,"internalType":"address"},{"name":"controller","type":"address","indexed":true,"internalType":"address"},{"name":"permissionKey","type":"bytes32","indexed":true,"internalType":"bytes32"},{"name":"approvedAt","type":"uint256","indexed":false,"internalType":"uint256"}],"anonymous":false},{"type":"event","name":"PermissionRevoked","inputs":[{"name":"wallet","type":"address","indexed":true,"internalType":"address"},{"name":"controller","type":"address","indexed":true,"internalType":"address"},{"name":"permissionKey","type":"bytes32","indexed":true,"internalType":"bytes32"},{"name":"revokedAt","type":"uint256","indexed":false,"internalType":"uint256"}],"anonymous":false}],"bytecode":{"object":"0x60a060405234801561000f575f5ffd5b506040516111d53803806111d583398181016040528101906100319190610137565b5f73ffffffffffffffffffffffffffffffffffffffff168173ffffffffffffffffffffffffffffffffffffffff160361009f576040517f08c379a0000000000000000000000000000000000000000000000000000000008152600401610096906101bc565b60405180910390fd5b8073ffffffffffffffffffffffffffffffffffffffff1660808173ffffffffffffffffffffffffffffffffffffffff1681525050506101da565b5f5ffd5b5f73ffffffffffffffffffffffffffffffffffffffff82169050919050565b5f610106826100dd565b9050919050565b610116816100fc565b8114610120575f5ffd5b50565b5f815190506101318161010d565b92915050565b5f6020828403121561014c5761014b6100d9565b5b5f61015984828501610123565b91505092915050565b5f82825260208201905092915050565b7f496e76616c696420636f6e74726f6c6c657220726567697374727900000000005f82015250565b5f6101a6601b83610162565b91506101b182610172565b602082019050919050565b5f6020820190508181035f8301526101d38161019a565b9050919050565b608051610fdc6101f95f395f818161022a015261095e0152610fdc5ff3fe608060405234801561000f575f5ffd5b5060043610610060575f3560e01c8063348c9afd146100645780636d6712d8146100805780639d0effdb146100b0578063bb70bb10146100cc578063bbc4541b146100fc578063cbe064771461011a575b5f5ffd5b61007e60048036038101906100799190610aba565b61014d565b005b61009a60048036038101906100959190610aba565b6104be565b6040516100a79190610b24565b60405180910390f35b6100ca60048036038101906100c59190610aba565b61055f565b005b6100e660048036038101906100e19190610aba565b610837565b6040516100f39190610bd5565b60405180910390f35b61010461095c565b6040516101119190610c49565b60405180910390f35b610134600480360381019061012f9190610c62565b610980565b6040516101449493929190610cdf565b60405180910390f35b828073ffffffffffffffffffffffffffffffffffffffff16638da5cb5b6040518163ffffffff1660e01b8152600401602060405180830381865afa158015610197573d5f5f3e3d5ffd5b505050506040513d601f19601f820116820180604052508101906101bb9190610d36565b73ffffffffffffffffffffffffffffffffffffffff163373ffffffffffffffffffffffffffffffffffffffff1614610228576040517f08c379a000000000000000000000000000000000000000000000000000000000815260040161021f90610dbb565b60405180910390fd5b7f000000000000000000000000000000000000000000000000000000000000000073ffffffffffffffffffffffffffffffffffffffff1663b0619e8584846040518363ffffffff1660e01b8152600401610283929190610dd9565b602060405180830381865afa15801561029e573d5f5f3e3d5ffd5b505050506040513d601f19601f820116820180604052508101906102c29190610e2a565b610301576040517f08c379a00000000000000000000000000000000000000000000000000000000081526004016102f890610e9f565b60405180910390fd5b5f5f5f8673ffffffffffffffffffffffffffffffffffffffff1673ffffffffffffffffffffffffffffffffffffffff1681526020019081526020015f205f8481526020019081526020015f205f8573ffffffffffffffffffffffffffffffffffffffff1673ffffffffffffffffffffffffffffffffffffffff1681526020019081526020015f2090505f73ffffffffffffffffffffffffffffffffffffffff16816001015f9054906101000a900473ffffffffffffffffffffffffffffffffffffffff1673ffffffffffffffffffffffffffffffffffffffff160361042b5783816001015f6101000a81548173ffffffffffffffffffffffffffffffffffffffff021916908373ffffffffffffffffffffffffffffffffffffffff16021790555082815f01819055505b60018160010160146101000a81548160ff021916908315150217905550428160020181905550828473ffffffffffffffffffffffffffffffffffffffff168673ffffffffffffffffffffffffffffffffffffffff167fcffd5d0e284bf9a962556979d21f9312f5318ee38f08729a710e0adaf0d547a3426040516104af9190610ebd565b60405180910390a45050505050565b5f5f5f8573ffffffffffffffffffffffffffffffffffffffff1673ffffffffffffffffffffffffffffffffffffffff1681526020019081526020015f205f8381526020019081526020015f205f8473ffffffffffffffffffffffffffffffffffffffff1673ffffffffffffffffffffffffffffffffffffffff1681526020019081526020015f2060010160149054906101000a900460ff1690509392505050565b828073ffffffffffffffffffffffffffffffffffffffff16638da5cb5b6040518163ffffffff1660e01b8152600401602060405180830381865afa1580156105a9573d5f5f3e3d5ffd5b505050506040513d601f19601f820116820180604052508101906105cd9190610d36565b73ffffffffffffffffffffffffffffffffffffffff163373ffffffffffffffffffffffffffffffffffffffff161461063a576040517f08c379a000000000000000000000000000000000000000000000000000000000815260040161063190610dbb565b60405180910390fd5b5f5f5f8673ffffffffffffffffffffffffffffffffffffffff1673ffffffffffffffffffffffffffffffffffffffff1681526020019081526020015f205f8481526020019081526020015f205f8573ffffffffffffffffffffffffffffffffffffffff1673ffffffffffffffffffffffffffffffffffffffff1681526020019081526020015f2090505f73ffffffffffffffffffffffffffffffffffffffff16816001015f9054906101000a900473ffffffffffffffffffffffffffffffffffffffff1673ffffffffffffffffffffffffffffffffffffffff1603610754576040517f08c379a000000000000000000000000000000000000000000000000000000000815260040161074b90610f20565b60405180910390fd5b8060010160149054906101000a900460ff166107a5576040517f08c379a000000000000000000000000000000000000000000000000000000000815260040161079c90610f88565b60405180910390fd5b5f8160010160146101000a81548160ff0219169083151502179055505f8160020181905550828473ffffffffffffffffffffffffffffffffffffffff168673ffffffffffffffffffffffffffffffffffffffff167f7a03c7130613e31db11b5ddd880fcdfbabf5a4e1405fa0ff6bca34d58b57c413426040516108289190610ebd565b60405180910390a45050505050565b61083f6109ed565b5f5f8573ffffffffffffffffffffffffffffffffffffffff1673ffffffffffffffffffffffffffffffffffffffff1681526020019081526020015f205f8381526020019081526020015f205f8473ffffffffffffffffffffffffffffffffffffffff1673ffffffffffffffffffffffffffffffffffffffff1681526020019081526020015f206040518060800160405290815f8201548152602001600182015f9054906101000a900473ffffffffffffffffffffffffffffffffffffffff1673ffffffffffffffffffffffffffffffffffffffff1673ffffffffffffffffffffffffffffffffffffffff1681526020016001820160149054906101000a900460ff1615151515815260200160028201548152505090509392505050565b7f000000000000000000000000000000000000000000000000000000000000000081565b5f602052825f5260405f20602052815f5260405f20602052805f5260405f205f925092505050805f015490806001015f9054906101000a900473ffffffffffffffffffffffffffffffffffffffff16908060010160149054906101000a900460ff16908060020154905084565b60405180608001604052805f81526020015f73ffffffffffffffffffffffffffffffffffffffff1681526020015f151581526020015f81525090565b5f5ffd5b5f73ffffffffffffffffffffffffffffffffffffffff82169050919050565b5f610a5682610a2d565b9050919050565b610a6681610a4c565b8114610a70575f5ffd5b50565b5f81359050610a8181610a5d565b92915050565b5f819050919050565b610a9981610a87565b8114610aa3575f5ffd5b50565b5f81359050610ab481610a90565b92915050565b5f5f5f60608486031215610ad157610ad0610a29565b5b5f610ade86828701610a73565b9350506020610aef86828701610a73565b9250506040610b0086828701610aa6565b9150509250925092565b5f8115159050919050565b610b1e81610b0a565b82525050565b5f602082019050610b375f830184610b15565b92915050565b610b4681610a87565b82525050565b610b5581610a4c565b82525050565b610b6481610b0a565b82525050565b5f819050919050565b610b7c81610b6a565b82525050565b608082015f820151610b965f850182610b3d565b506020820151610ba96020850182610b4c565b506040820151610bbc6040850182610b5b565b506060820151610bcf6060850182610b73565b50505050565b5f608082019050610be85f830184610b82565b92915050565b5f819050919050565b5f610c11610c0c610c0784610a2d565b610bee565b610a2d565b9050919050565b5f610c2282610bf7565b9050919050565b5f610c3382610c18565b9050919050565b610c4381610c29565b82525050565b5f602082019050610c5c5f830184610c3a565b92915050565b5f5f5f60608486031215610c7957610c78610a29565b5b5f610c8686828701610a73565b9350506020610c9786828701610aa6565b9250506040610ca886828701610a73565b9150509250925092565b610cbb81610a87565b82525050565b610cca81610a4c565b82525050565b610cd981610b6a565b82525050565b5f608082019050610cf25f830187610cb2565b610cff6020830186610cc1565b610d0c6040830185610b15565b610d196060830184610cd0565b95945050505050565b5f81519050610d3081610a5d565b92915050565b5f60208284031215610d4b57610d4a610a29565b5b5f610d5884828501610d22565b91505092915050565b5f82825260208201905092915050565b7f4e6f742077616c6c6574206f776e6572000000000000000000000000000000005f82015250565b5f610da5601083610d61565b9150610db082610d71565b602082019050919050565b5f6020820190508181035f830152610dd281610d99565b9050919050565b5f604082019050610dec5f830185610cc1565b610df96020830184610cb2565b9392505050565b610e0981610b0a565b8114610e13575f5ffd5b50565b5f81519050610e2481610e00565b92915050565b5f60208284031215610e3f57610e3e610a29565b5b5f610e4c84828501610e16565b91505092915050565b7f496e76616c696420636f6e74726f6c6c657200000000000000000000000000005f82015250565b5f610e89601283610d61565b9150610e9482610e55565b602082019050919050565b5f6020820190508181035f830152610eb681610e7d565b9050919050565b5f602082019050610ed05f830184610cd0565b92915050565b7f5065726d697373696f6e20646f6573206e6f74206578697374000000000000005f82015250565b5f610f0a601983610d61565b9150610f1582610ed6565b602082019050919050565b5f6020820190508181035f830152610f3781610efe565b9050919050565b7f5065726d697373696f6e20616c7265616479207265766f6b65640000000000005f82015250565b5f610f72601a83610d61565b9150610f7d82610f3e565b602082019050919050565b5f6020820190508181035f830152610f9f81610f66565b905091905056fea26469706673582212202e51242f6d55fa27476042954edad46925eeab05c798578bf4ac0799d74fc4fb64736f6c634300081c0033","linkReferences":{}},"methodIdentifiers":{"approvePermission(address,address,bytes32)":"348c9afd","controllerRegistry()":"bbc4541b","getPermission(address,address,bytes32)":"bb70bb10","hasPermission(address,address,bytes32)":"6d6712d8","permissions(address,bytes32,address)":"cbe06477","revokePermission(address,address,bytes32)":"9d0effdb"},"id":26}