{"abi":[{"type":"receive","stateMutability":"payable"},{"type":"function","name":"controllerExecute","inputs":[{"name":"target","type":"address","internalType":"address"},{"name":"value","type":"uint256","internalType":"uint256"},{"name":"data","type":"bytes","internalType":"bytes"},{"name":"permission","type":"bytes32","internalType":"bytes32"}],"outputs":[],"stateMutability":"nonpayable"},{"type":"function","name":"controllerRegistry","inputs":[],"outputs":[{"name":"","type":"address","internalType":"contract IControllerRegistry"}],"stateMutability":"view"},{"type":"function","name":"initialize","inputs":[{"name":"_owner","type":"address","internalType":"address"},{"name":"_controllerRegistry","type":"address","internalType":"address"},{"name":"_walletPermissions","type":"address","internalType":"address"}],"outputs":[],"stateMutability":"nonpayable"},{"type":"function","name":"initialized","inputs":[],"outputs":[{"name":"","type":"bool","internalType":"bool"}],"stateMutability":"view"},{"type":"function","name":"onERC1155BatchReceived","inputs":[{"name":"","type":"address","internalType":"address"},{"name":"","type":"address","internalType":"address"},{"name":"","type":"uint256[]","internalType":"uint256[]"},{"name":"","type":"uint256[]","internalType":"uint256[]"},{"name":"","type":"bytes","internalType":"bytes"}],"outputs":[{"name":"","type":"bytes4","internalType":"bytes4"}],"stateMutability":"pure"},{"type":"function","name":"onERC1155Received","inputs":[{"name":"","type":"address","internalType":"address"},{"name":"","type":"address","internalType":"address"},{"name":"","type":"uint256","internalType":"uint256"},{"name":"","type":"uint256","internalType":"uint256"},{"name":"","type":"bytes","internalType":"bytes"}],"outputs":[{"name":"","type":"bytes4","internalType":"bytes4"}],"stateMutability":"pure"},{"type":"function","name":"onERC721Received","inputs":[{"name":"","type":"address","internalType":"address"},{"name":"","type":"address","internalType":"address"},{"name":"","type":"uint256","internalType":"uint256"},{"name":"","type":"bytes","internalType":"bytes"}],"outputs":[{"name":"","type":"bytes4","internalType":"bytes4"}],"stateMutability":"pure"},{"type":"function","name":"owner","inputs":[],"outputs":[{"name":"","type":"address","internalType":"address"}],"stateMutability":"view"},{"type":"function","name":"ownerExecute","inputs":[{"name":"target","type":"address","internalType":"address"},{"name":"value","type":"uint256","internalType":"uint256"},{"name":"data","type":"bytes","internalType":"bytes"}],"outputs":[],"stateMutability":"nonpayable"},{"type":"function","name":"supportsInterface","inputs":[{"name":"interfaceId","type":"bytes4","internalType":"bytes4"}],"outputs":[{"name":"","type":"bool","internalType":"bool"}],"stateMutability":"view"},{"type":"function","name":"walletPermissions","inputs":[],"outputs":[{"name":"","type":"address","internalType":"contract IWalletPermissions"}],"stateMutability":"view"},{"type":"event","name":"PermissionsContractUpdated","inputs":[{"name":"newPermissions","type":"address","indexed":true,"internalType":"address"}],"anonymous":false},{"type":"event","name":"WalletOperation","inputs":[{"name":"target","type":"address","indexed":true,"internalType":"address"},{"name":"selector","type":"bytes4","indexed":true,"internalType":"bytes4"},{"name":"wallet","type":"address","indexed":true,"internalType":"address"},{"name":"value","type":"uint256","indexed":false,"internalType":"uint256"}],"anonymous":false}],"bytecode":{"object":"0x6080604052348015600e575f5ffd5b506117a18061001c5f395ff3fe60806040526004361061009f575f3560e01c80638da5cb5b116100635780638da5cb5b1461019c578063a954022b146101c6578063bbc4541b146101f0578063bc197c811461021a578063c0c53b8b14610256578063f23a6e611461027e576100a6565b806301ffc9a7146100aa578063150b7a02146100e6578063158ef93e146101225780634815ff171461014c578063721af58914610174576100a6565b366100a657005b5f5ffd5b3480156100b5575f5ffd5b506100d060048036038101906100cb9190610c70565b6102ba565b6040516100dd9190610cb5565b60405180910390f35b3480156100f1575f5ffd5b5061010c60048036038101906101079190610dbc565b6103f3565b6040516101199190610e4f565b60405180910390f35b34801561012d575f5ffd5b50610136610407565b6040516101439190610cb5565b60405180910390f35b348015610157575f5ffd5b50610172600480360381019061016d9190610e68565b61041a565b005b34801561017f575f5ffd5b5061019a60048036038101906101959190610f0c565b6105c9565b005b3480156101a7575f5ffd5b506101b0610900565b6040516101bd9190610f9f565b60405180910390f35b3480156101d1575f5ffd5b506101da610924565b6040516101e79190611013565b60405180910390f35b3480156101fb575f5ffd5b50610204610949565b604051610211919061104c565b60405180910390f35b348015610225575f5ffd5b50610240600480360381019061023b91906110ba565b61096e565b60405161024d9190610e4f565b60405180910390f35b348015610261575f5ffd5b5061027c60048036038101906102779190611191565b610985565b005b348015610289575f5ffd5b506102a4600480360381019061029f91906111e1565b610bfe565b6040516102b19190610e4f565b60405180910390f35b5f7f150b7a02000000000000000000000000000000000000000000000000000000007bffffffffffffffffffffffffffffffffffffffffffffffffffffffff1916827bffffffffffffffffffffffffffffffffffffffffffffffffffffffff1916148061038457507f4e2312e0000000000000000000000000000000000000000000000000000000007bffffffffffffffffffffffffffffffffffffffffffffffffffffffff1916827bffffffffffffffffffffffffffffffffffffffffffffffffffffffff1916145b806103ec57507f01ffc9a7000000000000000000000000000000000000000000000000000000007bffffffffffffffffffffffffffffffffffffffffffffffffffffffff1916827bffffffffffffffffffffffffffffffffffffffffffffffffffffffff1916145b9050919050565b5f63150b7a0260e01b905095945050505050565b600260149054906101000a900460ff1681565b5f5f9054906101000a900473ffffffffffffffffffffffffffffffffffffffff1673ffffffffffffffffffffffffffffffffffffffff163373ffffffffffffffffffffffffffffffffffffffff16146104a8576040517f08c379a000000000000000000000000000000000000000000000000000000000815260040161049f906112d1565b60405180910390fd5b5f73ffffffffffffffffffffffffffffffffffffffff168473ffffffffffffffffffffffffffffffffffffffff1603610516576040517f08c379a000000000000000000000000000000000000000000000000000000000815260040161050d90611339565b60405180910390fd5b5f8473ffffffffffffffffffffffffffffffffffffffff1684848460405161053f929190611393565b5f6040518083038185875af1925050503d805f8114610579576040519150601f19603f3d011682016040523d82523d5f602084013e61057e565b606091505b50509050806105c2576040517f08c379a00000000000000000000000000000000000000000000000000000000081526004016105b9906113f5565b60405180910390fd5b5050505050565b8060015f9054906101000a900473ffffffffffffffffffffffffffffffffffffffff1673ffffffffffffffffffffffffffffffffffffffff1663b0619e8533836040518363ffffffff1660e01b8152600401610626929190611422565b602060405180830381865afa158015610641573d5f5f3e3d5ffd5b505050506040513d601f19601f820116820180604052508101906106659190611473565b801561070a575060025f9054906101000a900473ffffffffffffffffffffffffffffffffffffffff1673ffffffffffffffffffffffffffffffffffffffff16636d6712d83033846040518463ffffffff1660e01b81526004016106ca9392919061149e565b602060405180830381865afa1580156106e5573d5f5f3e3d5ffd5b505050506040513d601f19601f820116820180604052508101906107099190611473565b5b610749576040517f08c379a00000000000000000000000000000000000000000000000000000000081526004016107409061151d565b60405180910390fd5b5f73ffffffffffffffffffffffffffffffffffffffff168673ffffffffffffffffffffffffffffffffffffffff16036107b7576040517f08c379a00000000000000000000000000000000000000000000000000000000081526004016107ae90611339565b60405180910390fd5b5f8673ffffffffffffffffffffffffffffffffffffffff168686866040516107e0929190611393565b5f6040518083038185875af1925050503d805f811461081a576040519150601f19603f3d011682016040523d82523d5f602084013e61081f565b606091505b5050905080610863576040517f08c379a000000000000000000000000000000000000000000000000000000000815260040161085a90611585565b60405180910390fd5b5f604051600487823780519150503373ffffffffffffffffffffffffffffffffffffffff16817bffffffffffffffffffffffffffffffffffffffffffffffffffffffff19168973ffffffffffffffffffffffffffffffffffffffff167f58c204dc328877799016cc1290dc782e90cc6f9c4e61ec98af38a799d952f4fb8a6040516108ee91906115b2565b60405180910390a45050505050505050565b5f5f9054906101000a900473ffffffffffffffffffffffffffffffffffffffff1681565b60025f9054906101000a900473ffffffffffffffffffffffffffffffffffffffff1681565b60015f9054906101000a900473ffffffffffffffffffffffffffffffffffffffff1681565b5f63bc197c8160e01b905098975050505050505050565b600260149054906101000a900460ff16156109d5576040517f08c379a00000000000000000000000000000000000000000000000000000000081526004016109cc90611615565b60405180910390fd5b5f73ffffffffffffffffffffffffffffffffffffffff168373ffffffffffffffffffffffffffffffffffffffff1603610a43576040517f08c379a0000000000000000000000000000000000000000000000000000000008152600401610a3a9061167d565b60405180910390fd5b5f73ffffffffffffffffffffffffffffffffffffffff168273ffffffffffffffffffffffffffffffffffffffff1603610ab1576040517f08c379a0000000000000000000000000000000000000000000000000000000008152600401610aa8906116e5565b60405180910390fd5b5f73ffffffffffffffffffffffffffffffffffffffff168173ffffffffffffffffffffffffffffffffffffffff1603610b1f576040517f08c379a0000000000000000000000000000000000000000000000000000000008152600401610b169061174d565b60405180910390fd5b825f5f6101000a81548173ffffffffffffffffffffffffffffffffffffffff021916908373ffffffffffffffffffffffffffffffffffffffff1602179055508160015f6101000a81548173ffffffffffffffffffffffffffffffffffffffff021916908373ffffffffffffffffffffffffffffffffffffffff1602179055508060025f6101000a81548173ffffffffffffffffffffffffffffffffffffffff021916908373ffffffffffffffffffffffffffffffffffffffff1602179055506001600260146101000a81548160ff021916908315150217905550505050565b5f63f23a6e6160e01b90509695505050505050565b5f5ffd5b5f5ffd5b5f7fffffffff0000000000000000000000000000000000000000000000000000000082169050919050565b610c4f81610c1b565b8114610c59575f5ffd5b50565b5f81359050610c6a81610c46565b92915050565b5f60208284031215610c8557610c84610c13565b5b5f610c9284828501610c5c565b91505092915050565b5f8115159050919050565b610caf81610c9b565b82525050565b5f602082019050610cc85f830184610ca6565b92915050565b5f73ffffffffffffffffffffffffffffffffffffffff82169050919050565b5f610cf782610cce565b9050919050565b610d0781610ced565b8114610d11575f5ffd5b50565b5f81359050610d2281610cfe565b92915050565b5f819050919050565b610d3a81610d28565b8114610d44575f5ffd5b50565b5f81359050610d5581610d31565b92915050565b5f5ffd5b5f5ffd5b5f5ffd5b5f5f83601f840112610d7c57610d7b610d5b565b5b8235905067ffffffffffffffff811115610d9957610d98610d5f565b5b602083019150836001820283011115610db557610db4610d63565b5b9250929050565b5f5f5f5f5f60808688031215610dd557610dd4610c13565b5b5f610de288828901610d14565b9550506020610df388828901610d14565b9450506040610e0488828901610d47565b935050606086013567ffffffffffffffff811115610e2557610e24610c17565b5b610e3188828901610d67565b92509250509295509295909350565b610e4981610c1b565b82525050565b5f602082019050610e625f830184610e40565b92915050565b5f5f5f5f60608587031215610e8057610e7f610c13565b5b5f610e8d87828801610d14565b9450506020610e9e87828801610d47565b935050604085013567ffffffffffffffff811115610ebf57610ebe610c17565b5b610ecb87828801610d67565b925092505092959194509250565b5f819050919050565b610eeb81610ed9565b8114610ef5575f5ffd5b50565b5f81359050610f0681610ee2565b92915050565b5f5f5f5f5f60808688031215610f2557610f24610c13565b5b5f610f3288828901610d14565b9550506020610f4388828901610d47565b945050604086013567ffffffffffffffff811115610f6457610f63610c17565b5b610f7088828901610d67565b93509350506060610f8388828901610ef8565b9150509295509295909350565b610f9981610ced565b82525050565b5f602082019050610fb25f830184610f90565b92915050565b5f819050919050565b5f610fdb610fd6610fd184610cce565b610fb8565b610cce565b9050919050565b5f610fec82610fc1565b9050919050565b5f610ffd82610fe2565b9050919050565b61100d81610ff3565b82525050565b5f6020820190506110265f830184611004565b92915050565b5f61103682610fe2565b9050919050565b6110468161102c565b82525050565b5f60208201905061105f5f83018461103d565b92915050565b5f5f83601f84011261107a57611079610d5b565b5b8235905067ffffffffffffffff81111561109757611096610d5f565b5b6020830191508360208202830111156110b3576110b2610d63565b5b9250929050565b5f5f5f5f5f5f5f5f60a0898b0312156110d6576110d5610c13565b5b5f6110e38b828c01610d14565b98505060206110f48b828c01610d14565b975050604089013567ffffffffffffffff81111561111557611114610c17565b5b6111218b828c01611065565b9650965050606089013567ffffffffffffffff81111561114457611143610c17565b5b6111508b828c01611065565b9450945050608089013567ffffffffffffffff81111561117357611172610c17565b5b61117f8b828c01610d67565b92509250509295985092959890939650565b5f5f5f606084860312156111a8576111a7610c13565b5b5f6111b586828701610d14565b93505060206111c686828701610d14565b92505060406111d786828701610d14565b9150509250925092565b5f5f5f5f5f5f60a087890312156111fb576111fa610c13565b5b5f61120889828a01610d14565b965050602061121989828a01610d14565b955050604061122a89828a01610d47565b945050606061123b89828a01610d47565b935050608087013567ffffffffffffffff81111561125c5761125b610c17565b5b61126889828a01610d67565b92509250509295509295509295565b5f82825260208201905092915050565b7f4e6f74206f776e657200000000000000000000000000000000000000000000005f82015250565b5f6112bb600983611277565b91506112c682611287565b602082019050919050565b5f6020820190508181035f8301526112e8816112af565b9050919050565b7f5a65726f207461726765742061646472657373000000000000000000000000005f82015250565b5f611323601383611277565b915061132e826112ef565b602082019050919050565b5f6020820190508181035f83015261135081611317565b9050919050565b5f81905092915050565b828183375f83830152505050565b5f61137a8385611357565b9350611387838584611361565b82840190509392505050565b5f61139f82848661136f565b91508190509392505050565b7f43616c6c206661696c65640000000000000000000000000000000000000000005f82015250565b5f6113df600b83611277565b91506113ea826113ab565b602082019050919050565b5f6020820190508181035f83015261140c816113d3565b9050919050565b61141c81610ed9565b82525050565b5f6040820190506114355f830185610f90565b6114426020830184611413565b9392505050565b61145281610c9b565b811461145c575f5ffd5b50565b5f8151905061146d81611449565b92915050565b5f6020828403121561148857611487610c13565b5b5f6114958482850161145f565b91505092915050565b5f6060820190506114b15f830186610f90565b6114be6020830185610f90565b6114cb6040830184611413565b949350505050565b7f5065726d697373696f6e2064656e6965640000000000000000000000000000005f82015250565b5f611507601183611277565b9150611512826114d3565b602082019050919050565b5f6020820190508181035f830152611534816114fb565b9050919050565b7f5065726d697373696f6e65642063616c6c206661696c656400000000000000005f82015250565b5f61156f601883611277565b915061157a8261153b565b602082019050919050565b5f6020820190508181035f83015261159c81611563565b9050919050565b6115ac81610d28565b82525050565b5f6020820190506115c55f8301846115a3565b92915050565b7f416c726561647920696e697469616c697a6564000000000000000000000000005f82015250565b5f6115ff601383611277565b915061160a826115cb565b602082019050919050565b5f6020820190508181035f83015261162c816115f3565b9050919050565b7f496e76616c6964206f776e6572000000000000000000000000000000000000005f82015250565b5f611667600d83611277565b915061167282611633565b602082019050919050565b5f6020820190508181035f8301526116948161165b565b9050919050565b7f496e76616c696420636f6e74726f6c6c657220726567697374727900000000005f82015250565b5f6116cf601b83611277565b91506116da8261169b565b602082019050919050565b5f6020820190508181035f8301526116fc816116c3565b9050919050565b7f496e76616c6964207065726d697373696f6e7320636f6e7472616374000000005f82015250565b5f611737601c83611277565b915061174282611703565b602082019050919050565b5f6020820190508181035f8301526117648161172b565b905091905056fea264697066735822122088b1bf188225a79d8769f94e2d2917be6c9bf3398b170b67dd7e481196a865d564736f6c634300081c0033","linkReferences":{}},"methodIdentifiers":{"controllerExecute(address,uint256,bytes,bytes32)":"721af589","controllerRegistry()":"bbc4541b","initialize(address,address,address)":"c0c53b8b","initialized()":"158ef93e","onERC1155BatchReceived(address,address,uint256[],uint256[],bytes)":"bc197c81","onERC1155Received(address,address,uint256,uint256,bytes)":"f23a6e61","onERC721Received(address,address,uint256,bytes)":"150b7a02","owner()":"8da5cb5b","ownerExecute(address,uint256,bytes)":"4815ff17","supportsInterface(bytes4)":"01ffc9a7","walletPermissions()":"a954022b"},"id":43}