{"abi":[{"type":"constructor","inputs":[{"name":"_implementation","type":"address","internalType":"address"},{"name":"_controllerRegistry","type":"address","internalType":"address"},{"name":"_walletPermissions","type":"address","internalType":"address"}],"stateMutability":"nonpayable"},{"type":"function","name":"allWallets","inputs":[{"name":"","type":"uint256","internalType":"uint256"}],"outputs":[{"name":"","type":"address","internalType":"address"}],"stateMutability":"view"},{"type":"function","name":"controllerPermissions","inputs":[{"name":"","type":"address","internalType":"address"},{"name":"","type":"bytes32","internalType":"bytes32"}],"outputs":[{"name":"","type":"bool","internalType":"bool"}],"stateMutability":"view"},{"type":"function","name":"controllerRegistry","inputs":[],"outputs":[{"name":"","type":"address","internalType":"address"}],"stateMutability":"view"},{"type":"function","name":"createWallet","inputs":[],"outputs":[{"name":"","type":"address","internalType":"address"}],"stateMutability":"nonpayable"},{"type":"function","name":"getAllWallets","inputs":[],"outputs":[{"name":"","type":"address[]","internalType":"address[]"}],"stateMutability":"view"},{"type":"function","name":"getWalletByOwner","inputs":[{"name":"owner","type":"address","internalType":"address"}],"outputs":[{"name":"","type":"address","internalType":"address"}],"stateMutability":"view"},{"type":"function","name":"getWalletsCount","inputs":[],"outputs":[{"name":"","type":"uint256","internalType":"uint256"}],"stateMutability":"view"},{"type":"function","name":"implementation","inputs":[],"outputs":[{"name":"","type":"address","internalType":"address"}],"stateMutability":"view"},{"type":"function","name":"owner","inputs":[],"outputs":[{"name":"","type":"address","internalType":"address"}],"stateMutability":"view"},{"type":"function","name":"ownerToWallet","inputs":[{"name":"","type":"address","internalType":"address"}],"outputs":[{"name":"","type":"address","internalType":"address"}],"stateMutability":"view"},{"type":"function","name":"renounceOwnership","inputs":[],"outputs":[],"stateMutability":"nonpayable"},{"type":"function","name":"setControllerPermission","inputs":[{"name":"controller","type":"address","internalType":"address"},{"name":"permission","type":"bytes32","internalType":"bytes32"},{"name":"allowed","type":"bool","internalType":"bool"}],"outputs":[],"stateMutability":"nonpayable"},{"type":"function","name":"setControllerRegistry","inputs":[{"name":"_controllerRegistry","type":"address","internalType":"address"}],"outputs":[],"stateMutability":"nonpayable"},{"type":"function","name":"setWalletPermissions","inputs":[{"name":"_walletPermissions","type":"address","internalType":"address"}],"outputs":[],"stateMutability":"nonpayable"},{"type":"function","name":"transferOwnership","inputs":[{"name":"newOwner","type":"address","internalType":"address"}],"outputs":[],"stateMutability":"nonpayable"},{"type":"function","name":"walletPermissions","inputs":[],"outputs":[{"name":"","type":"address","internalType":"address"}],"stateMutability":"view"},{"type":"event","name":"ControllerRegistryUpdated","inputs":[{"name":"newRegistry","type":"address","indexed":true,"internalType":"address"}],"anonymous":false},{"type":"event","name":"OwnershipTransferred","inputs":[{"name":"previousOwner","type":"address","indexed":true,"internalType":"address"},{"name":"newOwner","type":"address","indexed":true,"internalType":"address"}],"anonymous":false},{"type":"event","name":"PermissionUpdated","inputs":[{"name":"controller","type":"address","indexed":true,"internalType":"address"},{"name":"permission","type":"bytes32","indexed":true,"internalType":"bytes32"},{"name":"allowed","type":"bool","indexed":false,"internalType":"bool"}],"anonymous":false},{"type":"event","name":"WalletDeployed","inputs":[{"name":"wallet","type":"address","indexed":true,"internalType":"address"},{"name":"owner","type":"address","indexed":true,"internalType":"address"}],"anonymous":false},{"type":"event","name":"WalletPermissionsUpdated","inputs":[{"name":"newPermissions","type":"address","indexed":true,"internalType":"address"}],"anonymous":false},{"type":"error","name":"FailedDeployment","inputs":[]},{"type":"error","name":"InsufficientBalance","inputs":[{"name":"balance","type":"uint256","internalType":"uint256"},{"name":"needed","type":"uint256","internalType":"uint256"}]},{"type":"error","name":"OwnableInvalidOwner","inputs":[{"name":"owner","type":"address","internalType":"address"}]},{"type":"error","name":"OwnableUnauthorizedAccount","inputs":[{"name":"account","type":"address","internalType":"address"}]}],"bytecode":{"object":"0x60a060405234801561000f575f5ffd5b5060405161145b38038061145b8339818101604052810190610031919061028d565b335f73ffffffffffffffffffffffffffffffffffffffff168173ffffffffffffffffffffffffffffffffffffffff16036100a2575f6040517f1e4fbdf700000000000000000000000000000000000000000000000000000000815260040161009991906102ec565b60405180910390fd5b6100b18161016e60201b60201c565b508273ffffffffffffffffffffffffffffffffffffffff1660808173ffffffffffffffffffffffffffffffffffffffff16815250508160015f6101000a81548173ffffffffffffffffffffffffffffffffffffffff021916908373ffffffffffffffffffffffffffffffffffffffff1602179055508060025f6101000a81548173ffffffffffffffffffffffffffffffffffffffff021916908373ffffffffffffffffffffffffffffffffffffffff160217905550505050610305565b5f5f5f9054906101000a900473ffffffffffffffffffffffffffffffffffffffff169050815f5f6101000a81548173ffffffffffffffffffffffffffffffffffffffff021916908373ffffffffffffffffffffffffffffffffffffffff1602179055508173ffffffffffffffffffffffffffffffffffffffff168173ffffffffffffffffffffffffffffffffffffffff167f8be0079c531659141344cd1fd0a4f28419497f9722a3daafe3b4186f6b6457e060405160405180910390a35050565b5f5ffd5b5f73ffffffffffffffffffffffffffffffffffffffff82169050919050565b5f61025c82610233565b9050919050565b61026c81610252565b8114610276575f5ffd5b50565b5f8151905061028781610263565b92915050565b5f5f5f606084860312156102a4576102a361022f565b5b5f6102b186828701610279565b93505060206102c286828701610279565b92505060406102d386828701610279565b9150509250925092565b6102e681610252565b82525050565b5f6020820190506102ff5f8301846102dd565b92915050565b6080516111376103245f395f8181610409015261079301526111375ff3fe608060405234801561000f575f5ffd5b50600436106100fe575f3560e01c8063778b5aee116100955780638da5cb5b116100645780638da5cb5b14610298578063a954022b146102b6578063bbc4541b146102d4578063f2fde38b146102f2576100fe565b8063778b5aee146101fe57806385fd6cf31461021c5780638798b89e146102385780638cf8350f14610268576100fe565b806354cb0ecd116100d157806354cb0ecd1461018a5780635c60da1b146101ba5780636f15c08c146101d8578063715018a6146101f4576100fe565b8063022f2fca1461010257806311ebbf24146101325780631bfa86011461015057806329f1ad531461016e575b5f5ffd5b61011c60048036038101906101179190610d6c565b61030e565b6040516101299190610dc4565b60405180910390f35b61013a610338565b6040516101479190610dec565b60405180910390f35b610158610617565b6040516101659190610ebc565b60405180910390f35b61018860048036038101906101839190610f06565b6106a2565b005b6101a4600480360381019061019f9190610f56565b610761565b6040516101b19190610dec565b60405180910390f35b6101c2610791565b6040516101cf9190610dec565b60405180910390f35b6101f260048036038101906101ed9190610f56565b6107b5565b005b6101fc610843565b005b610206610856565b6040516102139190610f99565b60405180910390f35b61023660048036038101906102319190610f56565b610862565b005b610252600480360381019061024d9190610f56565b6108f0565b60405161025f9190610dec565b60405180910390f35b610282600480360381019061027d9190610fdc565b610955565b60405161028f9190610dec565b60405180910390f35b6102a0610990565b6040516102ad9190610dec565b60405180910390f35b6102be6109b7565b6040516102cb9190610dec565b60405180910390f35b6102dc6109dc565b6040516102e99190610dec565b60405180910390f35b61030c60048036038101906103079190610f56565b610a01565b005b6005602052815f5260405f20602052805f5260405f205f915091509054906101000a900460ff1681565b5f5f73ffffffffffffffffffffffffffffffffffffffff1660035f3373ffffffffffffffffffffffffffffffffffffffff1673ffffffffffffffffffffffffffffffffffffffff1681526020019081526020015f205f9054906101000a900473ffffffffffffffffffffffffffffffffffffffff1673ffffffffffffffffffffffffffffffffffffffff1614610403576040517f08c379a00000000000000000000000000000000000000000000000000000000081526004016103fa90611087565b60405180910390fd5b5f61042d7f0000000000000000000000000000000000000000000000000000000000000000610a85565b90508073ffffffffffffffffffffffffffffffffffffffff1663c0c53b8b3360015f9054906101000a900473ffffffffffffffffffffffffffffffffffffffff1660025f9054906101000a900473ffffffffffffffffffffffffffffffffffffffff166040518463ffffffff1660e01b81526004016104ae939291906110a5565b5f604051808303815f87803b1580156104c5575f5ffd5b505af11580156104d7573d5f5f3e3d5ffd5b505050508060035f3373ffffffffffffffffffffffffffffffffffffffff1673ffffffffffffffffffffffffffffffffffffffff1681526020019081526020015f205f6101000a81548173ffffffffffffffffffffffffffffffffffffffff021916908373ffffffffffffffffffffffffffffffffffffffff160217905550600481908060018154018082558091505060019003905f5260205f20015f9091909190916101000a81548173ffffffffffffffffffffffffffffffffffffffff021916908373ffffffffffffffffffffffffffffffffffffffff1602179055503373ffffffffffffffffffffffffffffffffffffffff168173ffffffffffffffffffffffffffffffffffffffff167ff25144576b87c0db53fd13e964c2b18299ee19d7d44d4b2636144644acff745b60405160405180910390a38091505090565b6060600480548060200260200160405190810160405280929190818152602001828054801561069857602002820191905f5260205f20905b815f9054906101000a900473ffffffffffffffffffffffffffffffffffffffff1673ffffffffffffffffffffffffffffffffffffffff168152602001906001019080831161064f575b5050505050905090565b6106aa610a97565b8060055f8573ffffffffffffffffffffffffffffffffffffffff1673ffffffffffffffffffffffffffffffffffffffff1681526020019081526020015f205f8481526020019081526020015f205f6101000a81548160ff021916908315150217905550818373ffffffffffffffffffffffffffffffffffffffff167f4638b0846e2ee9d0335af134e7db7bda781c895213c533f411ded5355c58463b836040516107549190610dc4565b60405180910390a3505050565b6003602052805f5260405f205f915054906101000a900473ffffffffffffffffffffffffffffffffffffffff1681565b7f000000000000000000000000000000000000000000000000000000000000000081565b6107bd610a97565b8060025f6101000a81548173ffffffffffffffffffffffffffffffffffffffff021916908373ffffffffffffffffffffffffffffffffffffffff1602179055508073ffffffffffffffffffffffffffffffffffffffff167f473448f7761c7ba32ca1afe75f7dec9f81aaf23a2905c5a5d94a6562932ebfb260405160405180910390a250565b61084b610a97565b6108545f610b1e565b565b5f600480549050905090565b61086a610a97565b8060015f6101000a81548173ffffffffffffffffffffffffffffffffffffffff021916908373ffffffffffffffffffffffffffffffffffffffff1602179055508073ffffffffffffffffffffffffffffffffffffffff167f25c7eae37e95e94e4382235e052eab1a2bf8ffcf966396e5cb0375859646086760405160405180910390a250565b5f60035f8373ffffffffffffffffffffffffffffffffffffffff1673ffffffffffffffffffffffffffffffffffffffff1681526020019081526020015f205f9054906101000a900473ffffffffffffffffffffffffffffffffffffffff169050919050565b60048181548110610964575f80fd5b905f5260205f20015f915054906101000a900473ffffffffffffffffffffffffffffffffffffffff1681565b5f5f5f9054906101000a900473ffffffffffffffffffffffffffffffffffffffff16905090565b60025f9054906101000a900473ffffffffffffffffffffffffffffffffffffffff1681565b60015f9054906101000a900473ffffffffffffffffffffffffffffffffffffffff1681565b610a09610a97565b5f73ffffffffffffffffffffffffffffffffffffffff168173ffffffffffffffffffffffffffffffffffffffff1603610a79575f6040517f1e4fbdf7000000000000000000000000000000000000000000000000000000008152600401610a709190610dec565b60405180910390fd5b610a8281610b1e565b50565b5f610a90825f610bdf565b9050919050565b610a9f610cd4565b73ffffffffffffffffffffffffffffffffffffffff16610abd610990565b73ffffffffffffffffffffffffffffffffffffffff1614610b1c57610ae0610cd4565b6040517f118cdaa7000000000000000000000000000000000000000000000000000000008152600401610b139190610dec565b60405180910390fd5b565b5f5f5f9054906101000a900473ffffffffffffffffffffffffffffffffffffffff169050815f5f6101000a81548173ffffffffffffffffffffffffffffffffffffffff021916908373ffffffffffffffffffffffffffffffffffffffff1602179055508173ffffffffffffffffffffffffffffffffffffffff168173ffffffffffffffffffffffffffffffffffffffff167f8be0079c531659141344cd1fd0a4f28419497f9722a3daafe3b4186f6b6457e060405160405180910390a35050565b5f81471015610c275747826040517fcf479181000000000000000000000000000000000000000000000000000000008152600401610c1e9291906110da565b60405180910390fd5b763d602d80600a3d3981f3363d3d373d3d3d363d730000008360601b60e81c175f526e5af43d82803e903d91602b57fd5bf38360781b176020526037600983f090505f73ffffffffffffffffffffffffffffffffffffffff168173ffffffffffffffffffffffffffffffffffffffff1603610cce576040517fb06ebf3d00000000000000000000000000000000000000000000000000000000815260040160405180910390fd5b92915050565b5f33905090565b5f5ffd5b5f73ffffffffffffffffffffffffffffffffffffffff82169050919050565b5f610d0882610cdf565b9050919050565b610d1881610cfe565b8114610d22575f5ffd5b50565b5f81359050610d3381610d0f565b92915050565b5f819050919050565b610d4b81610d39565b8114610d55575f5ffd5b50565b5f81359050610d6681610d42565b92915050565b5f5f60408385031215610d8257610d81610cdb565b5b5f610d8f85828601610d25565b9250506020610da085828601610d58565b9150509250929050565b5f8115159050919050565b610dbe81610daa565b82525050565b5f602082019050610dd75f830184610db5565b92915050565b610de681610cfe565b82525050565b5f602082019050610dff5f830184610ddd565b92915050565b5f81519050919050565b5f82825260208201905092915050565b5f819050602082019050919050565b610e3781610cfe565b82525050565b5f610e488383610e2e565b60208301905092915050565b5f602082019050919050565b5f610e6a82610e05565b610e748185610e0f565b9350610e7f83610e1f565b805f5b83811015610eaf578151610e968882610e3d565b9750610ea183610e54565b925050600181019050610e82565b5085935050505092915050565b5f6020820190508181035f830152610ed48184610e60565b905092915050565b610ee581610daa565b8114610eef575f5ffd5b50565b5f81359050610f0081610edc565b92915050565b5f5f5f60608486031215610f1d57610f1c610cdb565b5b5f610f2a86828701610d25565b9350506020610f3b86828701610d58565b9250506040610f4c86828701610ef2565b9150509250925092565b5f60208284031215610f6b57610f6a610cdb565b5b5f610f7884828501610d25565b91505092915050565b5f819050919050565b610f9381610f81565b82525050565b5f602082019050610fac5f830184610f8a565b92915050565b610fbb81610f81565b8114610fc5575f5ffd5b50565b5f81359050610fd681610fb2565b92915050565b5f60208284031215610ff157610ff0610cdb565b5b5f610ffe84828501610fc8565b91505092915050565b5f82825260208201905092915050565b7f57616c6c657420616c72656164792065786973747320666f722074686973206f5f8201527f776e657200000000000000000000000000000000000000000000000000000000602082015250565b5f611071602483611007565b915061107c82611017565b604082019050919050565b5f6020820190508181035f83015261109e81611065565b9050919050565b5f6060820190506110b85f830186610ddd565b6110c56020830185610ddd565b6110d26040830184610ddd565b949350505050565b5f6040820190506110ed5f830185610f8a565b6110fa6020830184610f8a565b939250505056fea2646970667358221220a90a6b26f3baeb4924e795f57d49dc40cb1f8ad8711ce3ce6eebdfba5507eef564736f6c634300081c0033","linkReferences":{}},"methodIdentifiers":{"allWallets(uint256)":"8cf8350f","controllerPermissions(address,bytes32)":"022f2fca","controllerRegistry()":"bbc4541b","createWallet()":"11ebbf24","getAllWallets()":"1bfa8601","getWalletByOwner(address)":"8798b89e","getWalletsCount()":"778b5aee","implementation()":"5c60da1b","owner()":"8da5cb5b","ownerToWallet(address)":"54cb0ecd","renounceOwnership()":"715018a6","setControllerPermission(address,bytes32,bool)":"29f1ad53","setControllerRegistry(address)":"85fd6cf3","setWalletPermissions(address)":"6f15c08c","transferOwnership(address)":"f2fde38b","walletPermissions()":"a954022b"},"id":42}